:100000000C9414000C941E000C941E000C941E0002
:100010000C941E000C941E000C941E000C941E00E8
:100020000C941E000C941E0011241FBECFEFD0E1D3
:10003000DEBFCDBF0E9420000C9455000C94000040
:1000400080E090E061E021B3462F082E01C0440F0C
:100050000A94EAF7242B21BB01968830910599F781
:1000600027E041E032B3842F022E01C0880F0A94AA
:10007000EAF7932F982B92BB3FEF63EC79E0315076
:1000800060407040E1F700C0000092B38095892382
:1000900082BB8FEF93EC39E0815090403040E1F724
:0E00A00000C000002F5F2770DDCFF894FFCF67
:00000001FF
